{
  "contractName": "ERC865Token",
  "abi": [
    {
      "constant": true,
      "inputs": [],
      "name": "name",
      "outputs": [
        {
          "name": "",
          "type": "string"
        }
      ],
      "payable": false,
      "stateMutability": "view",
      "type": "function"
    },
    {
      "constant": true,
      "inputs": [],
      "name": "totalSupply",
      "outputs": [
        {
          "name": "",
          "type": "uint256"
        }
      ],
      "payable": false,
      "stateMutability": "view",
      "type": "function"
    },
    {
      "constant": true,
      "inputs": [],
      "name": "decimals",
      "outputs": [
        {
          "name": "",
          "type": "uint8"
        }
      ],
      "payable": false,
      "stateMutability": "view",
      "type": "function"
    },
    {
      "constant": true,
      "inputs": [
        {
          "name": "_owner",
          "type": "address"
        }
      ],
      "name": "balanceOf",
      "outputs": [
        {
          "name": "",
          "type": "uint256"
        }
      ],
      "payable": false,
      "stateMutability": "view",
      "type": "function"
    },
    {
      "constant": true,
      "inputs": [],
      "name": "symbol",
      "outputs": [
        {
          "name": "",
          "type": "string"
        }
      ],
      "payable": false,
      "stateMutability": "view",
      "type": "function"
    },
    {
      "constant": false,
      "inputs": [
        {
          "name": "_to",
          "type": "address"
        },
        {
          "name": "_value",
          "type": "uint256"
        }
      ],
      "name": "transfer",
      "outputs": [
        {
          "name": "",
          "type": "bool"
        }
      ],
      "payable": false,
      "stateMutability": "nonpayable",
      "type": "function"
    },
    {
      "inputs": [],
      "payable": false,
      "stateMutability": "nonpayable",
      "type": "constructor"
    },
    {
      "anonymous": false,
      "inputs": [
        {
          "indexed": true,
          "name": "from",
          "type": "address"
        },
        {
          "indexed": true,
          "name": "to",
          "type": "address"
        },
        {
          "indexed": true,
          "name": "delegate",
          "type": "address"
        },
        {
          "indexed": false,
          "name": "amount",
          "type": "uint256"
        },
        {
          "indexed": false,
          "name": "fee",
          "type": "uint256"
        }
      ],
      "name": "TransferPreSigned",
      "type": "event"
    },
    {
      "anonymous": false,
      "inputs": [
        {
          "indexed": true,
          "name": "from",
          "type": "address"
        },
        {
          "indexed": true,
          "name": "to",
          "type": "address"
        },
        {
          "indexed": true,
          "name": "delegate",
          "type": "address"
        },
        {
          "indexed": false,
          "name": "amount",
          "type": "uint256"
        },
        {
          "indexed": false,
          "name": "fee",
          "type": "uint256"
        }
      ],
      "name": "ApprovalPreSigned",
      "type": "event"
    },
    {
      "anonymous": false,
      "inputs": [
        {
          "indexed": true,
          "name": "from",
          "type": "address"
        },
        {
          "indexed": true,
          "name": "to",
          "type": "address"
        },
        {
          "indexed": false,
          "name": "value",
          "type": "uint256"
        }
      ],
      "name": "Transfer",
      "type": "event"
    },
    {
      "constant": false,
      "inputs": [
        {
          "name": "_signature",
          "type": "bytes"
        },
        {
          "name": "_to",
          "type": "address"
        },
        {
          "name": "_value",
          "type": "uint256"
        },
        {
          "name": "_fee",
          "type": "uint256"
        },
        {
          "name": "_nonce",
          "type": "uint256"
        }
      ],
      "name": "transferPreSigned",
      "outputs": [
        {
          "name": "",
          "type": "bool"
        }
      ],
      "payable": false,
      "stateMutability": "nonpayable",
      "type": "function"
    },
    {
      "constant": true,
      "inputs": [
        {
          "name": "_token",
          "type": "address"
        },
        {
          "name": "_to",
          "type": "address"
        },
        {
          "name": "_value",
          "type": "uint256"
        },
        {
          "name": "_fee",
          "type": "uint256"
        },
        {
          "name": "_nonce",
          "type": "uint256"
        }
      ],
      "name": "transferPreSignedHashing",
      "outputs": [
        {
          "name": "",
          "type": "bytes32"
        }
      ],
      "payable": false,
      "stateMutability": "pure",
      "type": "function"
    },
    {
      "constant": true,
      "inputs": [
        {
          "name": "hash",
          "type": "bytes32"
        },
        {
          "name": "sig",
          "type": "bytes"
        }
      ],
      "name": "recover",
      "outputs": [
        {
          "name": "",
          "type": "address"
        }
      ],
      "payable": false,
      "stateMutability": "pure",
      "type": "function"
    }
  ],
  "bytecode": "0x60806040526109c460025534801561001657600080fd5b506002546000803373ffffffffffffffffffffffffffffffffffffffff1673ffffffffffffffffffffffffffffffffffffffff16815260200190815260200160002081905550610f178061006b6000396000f300608060405260043610610099576000357c0100000000000000000000000000000000000000000000000000000000900463ffffffff16806306fdde031461009e5780631296830d1461012e57806315420b71146101ed57806318160ddd1461028a57806319045a25146102b5578063313ce5671461036c57806370a082311461039d57806395d89b41146103f4578063a9059cbb14610484575b600080fd5b3480156100aa57600080fd5b506100b36104e9565b6040518080602001828103825283818151815260200191508051906020019080838360005b838110156100f35780820151818401526020810190506100d8565b50505050905090810190601f1680156101205780820380516001836020036101000a031916815260200191505b509250505060405180910390f35b34801561013a57600080fd5b506101d3600480360381019080803590602001908201803590602001908080601f0160208091040260200160405190810160405280939291908181526020018383808284378201915050505050509192919290803573ffffffffffffffffffffffffffffffffffffffff169060200190929190803590602001909291908035906020019092919080359060200190929190505050610522565b604051808215151515815260200191505060405180910390f35b3480156101f957600080fd5b5061026c600480360381019080803573ffffffffffffffffffffffffffffffffffffffff169060200190929190803573ffffffffffffffffffffffffffffffffffffffff1690602001909291908035906020019092919080359060200190929190803590602001909291905050506109f0565b60405180826000191660001916815260200191505060405180910390f35b34801561029657600080fd5b5061029f610b12565b6040518082815260200191505060405180910390f35b3480156102c157600080fd5b5061032a6004803603810190808035600019169060200190929190803590602001908201803590602001908080601f0160208091040260200160405190810160405280939291908181526020018383808284378201915050505050509192919290505050610b18565b604051808273ffffffffffffffffffffffffffffffffffffffff1673ffffffffffffffffffffffffffffffffffffffff16815260200191505060405180910390f35b34801561037857600080fd5b50610381610c10565b604051808260ff1660ff16815260200191505060405180910390f35b3480156103a957600080fd5b506103de600480360381019080803573ffffffffffffffffffffffffffffffffffffffff169060200190929190505050610c15565b6040518082815260200191505060405180910390f35b34801561040057600080fd5b50610409610c5d565b6040518080602001828103825283818151815260200191508051906020019080838360005b8381101561044957808201518184015260208101905061042e565b50505050905090810190601f1680156104765780820380516001836020036101000a031916815260200191505b509250505060405180910390f35b34801561049057600080fd5b506104cf600480360381019080803573ffffffffffffffffffffffffffffffffffffffff16906020019092919080359060200190929190505050610c96565b604051808215151515815260200191505060405180910390f35b6040805190810160405280600c81526020017f45524338363520546f6b656e000000000000000000000000000000000000000081525081565b60008060008073ffffffffffffffffffffffffffffffffffffffff168773ffffffffffffffffffffffffffffffffffffffff161415151561056257600080fd5b600015156003896040518082805190602001908083835b60208310151561059e5780518252602082019150602081019050602083039250610579565b6001836020036101000a038019825116818451168082178552505050505050905001915050908152602001604051809103902060009054906101000a900460ff1615151415156105ed57600080fd5b6105fa30888888886109f0565b91506106068289610b18565b9050600073ffffffffffffffffffffffffffffffffffffffff168173ffffffffffffffffffffffffffffffffffffffff161415151561064457600080fd5b6106a785610699886000808673ffffffffffffffffffffffffffffffffffffffff1673ffffffffffffffffffffffffffffffffffffffff16815260200190815260200160002054610eb690919063ffffffff16565b610eb690919063ffffffff16565b6000808373ffffffffffffffffffffffffffffffffffffffff1673ffffffffffffffffffffffffffffffffffffffff1681526020019081526020016000208190555061073a866000808a73ffffffffffffffffffffffffffffffffffffffff1673ffffffffffffffffffffffffffffffffffffffff16815260200190815260200160002054610ecf90919063ffffffff16565b6000808973ffffffffffffffffffffffffffffffffffffffff1673ffffffffffffffffffffffffffffffffffffffff168152602001908152602001600020819055506107cd856000803373ffffffffffffffffffffffffffffffffffffffff1673ffffffffffffffffffffffffffffffffffffffff16815260200190815260200160002054610ecf90919063ffffffff16565b6000803373ffffffffffffffffffffffffffffffffffffffff1673ffffffffffffffffffffffffffffffffffffffff1681526020019081526020016000208190555060016003896040518082805190602001908083835b6020831015156108495780518252602082019150602081019050602083039250610824565b6001836020036101000a038019825116818451168082178552505050505050905001915050908152602001604051809103902060006101000a81548160ff0219169083151502179055508673ffffffffffffffffffffffffffffffffffffffff168173ffffffffffffffffffffffffffffffffffffffff167fddf252ad1be2c89b69c2b068fc378daa952ba7f163c4a11628f55a4df523b3ef886040518082815260200191505060405180910390a33373ffffffffffffffffffffffffffffffffffffffff168173ffffffffffffffffffffffffffffffffffffffff167fddf252ad1be2c89b69c2b068fc378daa952ba7f163c4a11628f55a4df523b3ef876040518082815260200191505060405180910390a33373ffffffffffffffffffffffffffffffffffffffff168773ffffffffffffffffffffffffffffffffffffffff168273ffffffffffffffffffffffffffffffffffffffff167fec5a73fd1f178be20c1bca1b406cbf4b5c20d833b66e582fc122fb4baa0fc2a48989604051808381526020018281526020019250505060405180910390a460019250505095945050505050565b60006348664c167c010000000000000000000000000000000000000000000000000000000002868686868660405180877bffffffffffffffffffffffffffffffffffffffffffffffffffffffff19167bffffffffffffffffffffffffffffffffffffffffffffffffffffffff191681526004018673ffffffffffffffffffffffffffffffffffffffff1673ffffffffffffffffffffffffffffffffffffffff166c010000000000000000000000000281526014018573ffffffffffffffffffffffffffffffffffffffff1673ffffffffffffffffffffffffffffffffffffffff166c0100000000000000000000000002815260140184815260200183815260200182815260200196505050505050506040518091039020905095945050505050565b60025481565b60008060008060418551141515610b325760009350610c07565b6020850151925060408501519150606085015160001a9050601b8160ff161015610b5d57601b810190505b601b8160ff1614158015610b755750601c8160ff1614155b15610b835760009350610c07565b600186828585604051600081526020016040526040518085600019166000191681526020018460ff1660ff1681526020018360001916600019168152602001826000191660001916815260200194505050505060206040516020810390808403906000865af1158015610bfa573d6000803e3d6000fd5b5050506020604051035193505b50505092915050565b600081565b60008060008373ffffffffffffffffffffffffffffffffffffffff1673ffffffffffffffffffffffffffffffffffffffff168152602001908152602001600020549050919050565b6040805190810160405280600381526020017f383635000000000000000000000000000000000000000000000000000000000081525081565b60008060003373ffffffffffffffffffffffffffffffffffffffff1673ffffffffffffffffffffffffffffffffffffffff168152602001908152602001600020548211151515610ce557600080fd5b600073ffffffffffffffffffffffffffffffffffffffff168373ffffffffffffffffffffffffffffffffffffffff1614151515610d2157600080fd5b610d72826000803373ffffffffffffffffffffffffffffffffffffffff1673ffffffffffffffffffffffffffffffffffffffff16815260200190815260200160002054610eb690919063ffffffff16565b6000803373ffffffffffffffffffffffffffffffffffffffff1673ffffffffffffffffffffffffffffffffffffffff16815260200190815260200160002081905550610e05826000808673ffffffffffffffffffffffffffffffffffffffff1673ffffffffffffffffffffffffffffffffffffffff16815260200190815260200160002054610ecf90919063ffffffff16565b6000808573ffffffffffffffffffffffffffffffffffffffff1673ffffffffffffffffffffffffffffffffffffffff168152602001908152602001600020819055508273ffffffffffffffffffffffffffffffffffffffff163373ffffffffffffffffffffffffffffffffffffffff167fddf252ad1be2c89b69c2b068fc378daa952ba7f163c4a11628f55a4df523b3ef846040518082815260200191505060405180910390a36001905092915050565b6000828211151515610ec457fe5b818303905092915050565b60008183019050828110151515610ee257fe5b809050929150505600a165627a7a72305820ae5ab7746eda0fbf1d7497486b0ffe06d57499a717de74ceb8babedcb5d43a750029",
  "source": "pragma solidity ^0.4.0;\r\nimport \"zeppelin-solidity/contracts/token/ERC20/BasicToken.sol\";\r\n\r\ncontract ERC865Token is BasicToken\r\n{\r\n    string public constant name = \"ERC865 Token\";\r\n    string public constant symbol = \"865\";\r\n    uint8 public constant decimals = 0;\r\n    uint256 public totalSupply = 2500;\r\n    mapping(bytes => bool) signatures;\r\n    event TransferPreSigned(address indexed from, address indexed to, address indexed delegate, uint256 amount, uint256 fee);\r\n    event ApprovalPreSigned(address indexed from, address indexed to, address indexed delegate, uint256 amount, uint256 fee);\r\n    \r\n    constructor() public{\r\n        balances[msg.sender] = totalSupply;\r\n    }\r\n    \r\n    function transferPreSigned(\r\n        bytes _signature,\r\n        address _to,\r\n        uint256 _value,\r\n        uint256 _fee,\r\n        uint256 _nonce\r\n    )\r\n        public\r\n        returns (bool)\r\n    {\r\n        require(_to != address(0));\r\n        require(signatures[_signature] == false);\r\n         bytes32 hashedTx = transferPreSignedHashing(address(this), _to, _value, _fee, _nonce);\r\n         address from = recover(hashedTx, _signature);\r\n        require(from != address(0));\r\n         balances[from] = balances[from].sub(_value).sub(_fee);\r\n        balances[_to] = balances[_to].add(_value);\r\n        balances[msg.sender] = balances[msg.sender].add(_fee);\r\n        signatures[_signature] = true;\r\n        Transfer(from, _to, _value);\r\n        Transfer(from, msg.sender, _fee);\r\n        TransferPreSigned(from, _to, msg.sender, _value, _fee);\r\n        return true;\r\n    }\r\n    \r\n     function transferPreSignedHashing(\r\n        address _token,\r\n        address _to,\r\n        uint256 _value,\r\n        uint256 _fee,\r\n        uint256 _nonce\r\n    )\r\n        public\r\n        pure\r\n        returns (bytes32)\r\n    {\r\n        return keccak256(bytes4(0x48664c16), _token, _to, _value, _fee, _nonce);\r\n    }\r\n    \r\n    function recover(bytes32 hash, bytes sig) public pure returns (address) {\r\n      bytes32 r;\r\n      bytes32 s;\r\n      uint8 v;\r\n      //Check the signature length\r\n      if (sig.length != 65) {\r\n        return (address(0));\r\n      }\r\n       // Divide the signature in r, s and v variables\r\n      assembly {\r\n        r := mload(add(sig, 32))\r\n        s := mload(add(sig, 64))\r\n        v := byte(0, mload(add(sig, 96)))\r\n      }\r\n       // Version of signature should be 27 or 28, but 0 and 1 are also possible versions\r\n      if (v < 27) {\r\n        v += 27;\r\n      }\r\n       // If the version is correct return the signer address\r\n      if (v != 27 && v != 28) {\r\n        return (address(0));\r\n      } else {\r\n        return ecrecover(hash, v, r, s);\r\n      }\r\n    }\r\n}\r\n",
  "sourcePath": "E:\\ERC865Demo\\contracts\\ERC865Token.sol",
  "compiler": {
    "name": "solc",
    "version": "0.4.24+commit.e67f0147.Emscripten.clang"
  },
  "schemaVersion": "2.0.1",
  "updatedAt": "2018-12-14T17:44:15.816Z"
}